:10000000E9C000000C9439150C9460150BC1000078
:1000100009C1000007C1000005C100000C94D618FA
:1000200001C10000FFC00000FDC00000FBC00000D7
:10003000F9C000000C943C19F5C00000F3C00000AA
:100040000C948715EFC000000C94F5170C9427183A
:10005000E9C00000E7C00000E5C00000E3C0000008
:100060000C948327DFC000007A213A239F23A22328
:100070007E22B1226A2171214E21822371237E23A7
:10008000A223A223A22339210000000800020100BC
:100090000003040700000000000000000102040843
:1000A00010204080010204081020010204081020E2
:1000B000040404040404040402020202020203030E
:1000C0000303030300000000250028002B000200AA
:1000D0001D3A2774694E53E8F5D2CF9C81A6BBCD5B
:1000E000D0F7EAB9A4839E25381F02514C6B76875E
:1000F0009ABDA0F3EEC9D46F7255481B06213C4A45
:1001000057706D3E230419A2BF9885D6CBECF1132E
:100110000E2934677A5D40FBE6C1DC8F92B5A8DE1C
:10012000C3E4F9AAB7908D362B0C11425F78659421
:1001300089AEB3E0FDDAC77C61465B0815322F5902
:1001400044637E2D30170AB1AC8B96C5D8FFE226EA
:100150003B1C01524F6875CED3F4E9BAA7809DEBE2
:10016000F6D1CC9F82A5B8031E3924776A4D50A1E1
:10017000BC9B86D5C8EFF24954736E3D20071A6CBC
:1001800071564B1805223F8499BEA3F0EDCAD735AE
:10019000280F12415C7B66DDC0E7FAA9B4938EF8A4
:1001A000E5C2DF8C91B6AB100D2A3764795E43B29D
:1001B000AF8895C6DBFCE15A47607D2E3314097F7A
:1001C0006245580B16312C978AADB0E3FED9C400B6
:1001D0004C18622611241FBECFEFD8E0DEBFCDBF82
:1001E00012E0A0E0B1E0E2EFF8E502C005900D9268
:1001F000A63EB107D9F727E0A6EEB2E001C01D92F6
:10020000A735B207E1F710E0CAEED0E004C02197AD
:10021000FE010E94092BC83ED107C9F70E94C928D8
:100220000C94772CEDCECF92DF92EF92FF926B0180
:100230007C01672B682B692B69F480910601811181
:1002400009C080910801909109010E94D12581E0A7
:1002500080930601C601880F991F880F991F8A5F36
:100260009E4FFF90EF90DF90CF900895009781F020
:10027000FC012181211104C040E45DE063E070E0F5
:10028000FC01828193810E94E12580E090E0089545
:1002900088E090E008954F925F926F927F928F92E4
:1002A0009F92AF92BF92CF92DF92EF92FF920F9305
:1002B0001F93CF93DF93009771F1280139017A01E1
:1002C000EC01402F8A819B810E9460268A819B815C
:1002D000DC01ED91FC910084F185E02D0995892BDD
:1002E000A9F06701812C912C54018A819B81DC014A
:1002F000ED91FC910084F185E02D0995892B71F039
:1003000084149504A604B70461F408C084E0F701DE
:1003100011928A95E9F788E090E019C080E090E0BA
:1003200016C08A819B81DC01ED91FC910284F385EA
:10033000E02D09958F3FBFEF9B0741F3FFEF8F1A29
:100340009F0AAF0ABF0AD6018D936D01CECFDF9110
:10035000CF911F910F91FF90EF90DF90CF90BF90C2
:10036000AF909F908F907F906F905F904F90089587
:100370008F929F92AF92BF92CF92DF92EF920F93A4
:100380001F93CF93DF93009709F1480159016A0148
:10039000EC018A819B810E94E4258A819B81DC019A
:1003A000ED91FC910280F381E02DA401B601099545
:1003B0008A819B81EE2011F060E001C061E00E9423
:1003C000EE25882331F08250823030F088E090E0D2
:1003D00005C080E090E002C084E090E0DF91CF9122
:1003E0001F910F91EF90DF90CF90BF90AF909F90B3
:1003F0008F900895009729F0FC01828193810C94DD
:10040000E0250895FC0181819281A381B481019747
:10041000A105B10531F48581882319F08085918586
:10042000E9CF0895FC0181819281A381B481019774
:10043000A105B10531F48581882319F08085918566
:10044000D9CF08958F929F92AF92BF92CF92DF92B1
:10045000EF92FF920F931F93CF93DF9300D01F92E1
:10046000CDB7DEB7C090A201D090A301E090A40167
:10047000F090A501A701960160914A0570914B0586
:1004800080914C0590914D050E94B729882341F039
:10049000C0924A05D0924B05E0924C05F0924D0572
:1004A00083E08B83C12CEE24E39401E010E020E094
:1004B00030E0AE014D5F5F4F6EE170E08091480526
:1004C0009091490555DF8B83811114C0CC24C394CE
:1004D000E12C02E010E020E030E0AE014F5F5F4F22
:1004E0006EE170E08091480590914905D4DE6A8103
:1004F000798102C060E070E0072E000C880B990B38
:100500000E94BD299B01AC016091B2017091B301C1
:100510008091B4019091B5010E94712A60934407C3
:10052000709345078093460790934707C0909E01BC
:10053000D0909F01E090A001F090A101A701960149
:10054000609158057091590580915A0590915B050D
:100550000E94B729882341F0C0925805D0925905CE
:10056000E0925A05F0925B0585E08B83C12CEE2466
:10057000E39401E010E020E030E0AE014D5F5F4F1A
:100580006EE170E08091560590915705F1DE8B8306
:10059000811114C0CC24C394E12C02E010E020E0CF
:1005A00030E0AE014F5F5F4F6EE170E08091560525
:1005B0009091570570DE6A81798102C060E070E039
:1005C000072E000C880B990B0E94BD299B01AC01E2
:1005D0006091B6017091B7018091B8019091B90115
:1005E0000E94712A609348077093490780934A07D5
:1005F00090934B07C0909A01D0909B01E0909C0192
:10060000F0909D01A70196016091660570916705C4
:1006100080916805909169050E94B729882341F06F
:10062000C0926605D0926705E0926805F092690570
:1006300087E08B83C12CEE24E39401E010E020E0FE
:1006400030E0AE014D5F5F4F6EE170E08091640578
:10065000909165058DDE8B83811114C0CC24C394E9
:10066000E12C02E010E020E030E0AE014F5F5F4F90
:100670006EE170E080916405909165050CDE6A8101
:10068000798102C060E070E0072E000C880B990BA6
:100690000E94BD299B01AC016091BA017091BB0120
:1006A0008091BC019091BD010E94712A60934C071A
:1006B00070934D0780934E0790934F0781E090E031
:1006C0000E94E61440912407509125076091260767
:1006D0007091270780E090E00E94E21480903F072D
:1006E00090904007A0904107B090420720E030E092
:1006F00040E85FEBC501B4010E94B729882331F1BE
:10070000C0902407D0902507E0902607F090270797
:10071000A7019601C501B4010E9452294B015C0159
:1007200020E030E040E054E3C701B6010E94712AA6
:100730009B01AC01C501B4010E946D2A181634F06A
:1007400087EC91E090930F0780930E078091430709
:10075000882331F087EC91E090930F0780930E0788
:10076000C0902807D0902907E0902A07F0902B0727
:100770008FEFC81AD80AE80AF80AC0922807D09260
:100780002907E0922A07F0922B07C701B6010E94C1
:10079000BB299B01AC0160912C0770912D078091C2
:1007A0002E0790912F070E94712A6093240770935F
:1007B0002507809326079093270780913407882385
:1007C00029F0813029F41092350709C081E005C075
:1007D00081E090913607911180E0809335078091F8
:1007E000350794E0899FF0011124E25FF84FC1A61C
:1007F000D2A6E3A6F4A6809336078FEF8093350741
:100800000F900F900F90DF91CF911F910F91FF905C
:10081000EF90DF90CF90BF90AF909F908F90089512
:100820003F924F925F926F927F928F929F92AF9280
:10083000BF92CF92DF92EF92FF920F931F93CF93CD
:10084000DF93CDB7DEB76A970FB6F894DEBF0FBE61
:10085000CDBF80E090E0A0E8BFEB80933F0790938E
:100860004007A0934107B09342078DEC9CECACECA1
:10087000BDE380932C0790932D07A0932E07B09390
:100880002F0789EE91EBA6E0BAEB809312079093C5
:100890001307A0931407B093150782E894EFADE017
:1008A000BBED8093160790931707A0931807B0939A
:1008B000190780E19BE1A1E5B7EC80931A079093BB
:1008C0001B07A0931C07B0931D0785EA96E3A3E0DE
:1008D000B9E880931E0790931F07A0932007B09359
:1008E00021078AE093E090931107809310078AEF25
:1008F00092E090930B0380930A0384E792E0909335
:10090000FB028093FA029093FD028093FC02909385
:10091000FF028093FE029093010380930003909363
:100920000303809302039093050380930403909341
:10093000070380930603909309038093080382E2E0
:1009400097E090930F0380930E0382E197E09093DA
:100950000D0380930C0384E297E09093110380933E
:100960001003E6EEF2E084E1DF011D928A95E9F7DB
:10097000F0932307E093220782E190E09093E7024F
:100980008093E60286E791E09093E9028093E80283
:1009900082E591E09093EB028093EA0286E191E098
:1009A0009093ED028093EC028AE091E09093EF0245
:1009B0008093EE028FEF8093340780933507109277
:1009C00036071092400582E3F82EF092880503E383
:1009D0000093890594E3392E30928A0525E3422E4F
:1009E00040928B0536E3532E50928C0547E3642EDC
:1009F00060928D0558E3752E70928E0569E3C62EC0
:100A0000C0928F0511E31093900570E3D72ED0921A
:100A10009105109392051093930510939405F0920D
:100A20009505109396050093970588E895E09093B7
:100A30004705809346058091A2019091A301A09162
:100A4000A401B091A50180934A0590934B05A09312
:100A50004C05B0934D0510924505812C912C540105
:100A600083948092410590924205A0924305B092F2
:100A7000440540E050E060E070E0CB01D4DB9093AF
:100A800049058093480540EA56E861E070E0EEDBF6
:100A9000EE24E394E092450510924E05F092C805CD
:100AA0000093C9053092CA054092CB055092CC05FF
:100AB0006092CD057092CE05C092CF051093D005FF
:100AC000D092D1051093D2051093D3051093D4057D
:100AD000F092D5051093D6050093D70588EC95E0E4
:100AE000909355058093540580919E0190919F01AC
:100AF000A091A001B091A101809358059093590550
:100B0000A0935A05B0935B051092530580924F0550
:100B100090925005A0925105B092520540E050E0ED
:100B200060E070E0CB017FDB909357058093560522
:100B300040EA56E861E070E099DBE09253051092DC
:100B40005C05F09208060093090630920A0640926E
:100B50000B0650920C0660920D0670920E06C09223
:100B60000F0610931006D0921106109312061093E0
:100B7000130610931406F0921506109316060093B0
:100B8000170688E096E09093630580936205809154
:100B90009A0190919B01A0919C01B0919D0180933D
:100BA000660590936705A0936805B0936905109258
:100BB000610580925D0590925E05A0925F05B092FE
:100BC000600540E050E060E070E0CB012CDB9093EA
:100BD00065058093640540EA56E861E070E046DB15
:100BE000E092610510927E05F092C8060093C90656
:100BF0003092CA064092CB065092CC066092CD0647
:100C00007092CE06C092CF061093D006D092D10635
:100C10001093D2061093D3061093D406F092D50603
:100C20001093D6060093D70688EC96E0909385053E
:100C3000809384051092830580927F0590928005B1
:100C4000A0928105B092820540E050E060E070E043
:100C5000CB01E9DA909387058093860540EA56E850
:100C600061E070E003DBE092830510927405F0927E
:100C700088060093890630928A0640928B0650922D
:100C80008C0660928D0670928E06C0928F0610932D
:100C90009006D092910610939206109393061093AB
:100CA0009406F0929506109396060093970688E8AE
:100CB00096E090937B0580937A0510927905809257
:100CC000750590927605A0927705B092780540E080
:100CD00050E060E070E0CB01A6DA90937D05809350
:100CE0007C0540EA56E861E070E0C0DAE092790500
:100CF00010926A05F09248060093490630924A061F
:100D000040924B0650924C0660924D0670924E06F1
:100D1000C0924F0610935006D0925106109352067F
:100D20001093530610935406F092550610935606EE
:100D30000093570688E496E09093710580937005C0
:100D400010926F0580926B0590926C05A0926D05D4
:100D5000B0926E0540E050E060E070E0CB0163DAF5
:100D6000909373058093720540EA56E861E070E065
:100D70007DDAE0926F0588E0E6EAF1E0DE01539665
:100D800001900D928A95E1F71A86FE0173963F0154
:100D90005E01FBE0AF0EB11C4E018BE1880E911C91
:100DA000D501F30181918D93E815F905D9F789E013
:100DB000FE013A96DE01119601900D928A95E1F7B7
:100DC000C12CE12C09E010E020E030E0AE014F5FE3
:100DD0005F4F6EE170E08091860590918705C8DADB
:100DE0008093520788E0EAEAF1E0DE015396019031
:100DF0000D928A95E1F781E08A87D501FE0173960D
:100E000081918D93E815F905D9F789E0FE013A96AD
:100E1000DE01119601900D928A95E1F7C12CE12C2B
:100E200009E010E020E030E0AE014F5F5F4F6EE17F
:100E300070E080917C0590917D059ADA809351074E
:100E400088E0EEEAF1E0DE01539601900D928A957A
:100E5000E1F782E08A87D3018D913D01F50181930D
:100E60005F01A815B905B9F789E0FE013A96DE01E0
:100E7000119601900D928A95E1F7C12CE12C09E0C1
:100E800010E020E030E0AE014F5F5F4F6EE170E0B8
:100E900080917205909173056BDA809350076A9682
:100EA0000FB6F894DEBF0FBECDBFDF91CF911F917B
:100EB0000F91FF90EF90DF90CF90BF90AF909F90F9
:100EC0008F907F906F905F904F903F9008958091AA
:100ED0004005811106C081E08093400580E495E0E3
:100EE00091DA80914E05811106C081E080934E0514
:100EF0008EE495E087DA80915C05811106C081E07F
:100F000080935C058CE595E07DDA80917E0581110A
:100F100006C081E080937E058EE795E083DA8091BC
:100F20007405811106C081E08093740584E795E023
:100F300079DA80916A05811106C081E080936A05A3
:100F40008AE695E06FCA0895EF92FF920F931F9380
:100F5000CF93DF93DC01EA01F90114968D919C9106
:100F6000159712960D911C911397080F191F288140
:100F7000398118964D915C9119974217530728F0C3
:100F80004D915C911197452B39F17801E21AF30AE2
:100F900018964D915C911997481B590B4E0D5F1D8A
:100FA0004617570794F1A901460F571F40175107DD
:100FB000E0F0F182E082338322836E197F0975832A
:100FC0006483161617061CF4382F292F02C030E050
:100FD00020E03683278313C018968D919C91199732
:100FE000821B930B8617970784F07183608333838A
:100FF0002283158214821782168288819981680F54
:10100000791F7983688380E001C081E0DF91CF910F
:101010001F910F91FF90EF900895CF92DF92EF9282
:10102000FF92CF93DF936B017C0184E48C9DE00100
:101030008D9DD00D1124CA5EDC4F8AA99BA9009713
:1010400021F00E94D52B1BAA1AAA84E48C9DF001E2
:101050008D9DF00D1124EA5EFC4F86A997A900979B
:1010600011F00E94D52B84E48C9DF0018D9DF00D34
:101070001124EA5EFC4F138A128A168A178A108E90
:10108000118E128E138E148E158E168E178E10A240
:1010900011A281E090E093A382A315A214A216A24C
:1010A00017A210A611A613A612A615A614A616A678
:1010B00017A610AA11AA13AA12AA15AA14AA17AA47
:1010C00016AA11AE10AE12AE13AE14AE15AEDF01FD
:1010D000DE961D921D921D921C921397EE5BFF4FA0
:1010E00011821082DF91CF91FF90EF90DF90CF902F
:1010F00008950F931F93CF93DF93EB01DC018D9144
:101100009C91FC01A681B781E881F98123E0EE0F73
:10111000FF1F2A95E1F712962D913C911397E20F4C
:10112000F31F00811181AC85BD859D01220F331F06
:10113000DC0112968D919C911397D901A80FB91FCC
:101140008D919C9124813581232B19F461E070E00D
:1011500002C062E070E0869F9001879F300D969FED
:10116000300D112488859985289FB001299F700D25
:10117000389F700D1124EC81FD812E9FC0012F9F9F
:10118000900D3E9F900D1124800F911FFA019183C5
:10119000808373836283DF91CF911F910F910895B4
:1011A0002F923F924F925F926F927F928F929F9277
:1011B000AF92BF92CF92DF92EF92FF920F931F9365
:1011C000CF93DF9300D000D000D0CDB7DEB7DC01E5
:1011D0001496ED91FC9115970190F081E02D80859A
:1011E00091859A838983A281B381BC83AB83FB0100
:1011F00081909190A190B190C12CD12C7601C8140E
:10120000D904EA04FB040CF05DC04480558066807C
:1012100077804085518562857385CF0140969E8396
:101220008D83A081B1819D0183E0220F331F8A95B8
:10123000E1F7A981BA8112968D919C911397D901FA
:10124000A80FB91F2D903C9011970484F585E02DCF
:10125000EE0FFF1F8B819C81E80FF91F0190F08139
:10126000E02D14968D919C911597892B19F481E0AE
:1012700090E002C082E090E08E9F90018F9F300D41
:101280009E9F300D1124249F8001259F100D349FB7
:10129000100D1124249DC001259D900D349D900DAD
:1012A0001124A8016D817E81820D931D0E945E2C08
:1012B000ED81FE81E00FF11F9FEFC91AD90AE90AFB
:1012C000F90A9DCF26960FB6F894DEBF0FBECDBFAC
:1012D000DF91CF911F910F91FF90EF90DF90CF9012
:1012E000BF90AF909F908F907F906F905F904F9046
:1012F0003F902F900895CF93DF93DB01A254BE4F10
:101300002C91222369F024E4269FF001279FF00D01
:101310001124EA5EFC4FEF0119922A95E9F71C921D
:1013200024E4269FF001279FF00D1124EA5EFC4F74
:1013300014821582168217821186108613861286F1
:10134000118A108A17861686DF91CF9166CE2F926A
:101350003F924F925F926F927F928F929F92AF9245
:10136000BF92CF92DF92EF92FF920F931F93CF9392
:10137000DF93CDB7DEB728970FB6F894DEBF0FBE68
:10138000CDBF24E4269FD001279FB00D1124AA5E73
:10139000BC4FBC83AB8314960D911D912D913C9154
:1013A0001797012B022B032B09F4C1C02A016B01F3
:1013B0007C01612C712C812C912C5401B887AF8356
:1013C0001496BC83AB83EF81F8853896FE83ED835A
:1013D000EB81FC8180819181A281B381881699067D
:1013E000AA06BB0694F5AD81BE81ED91FC91E60D98
:1013F000F71DB281B98323812A830B2F122F212C51
:10140000312C24143504A4F4D801ED91FC913097CB
:1014100049F0848195810E94D52BF80180819181CA
:101420000E94D52BFFEF2F1A3F0A0E5F1F4FE9CF07
:1014300089819A810E94D52B2FEF821A920AA20AE3
:10144000B20A34E0630E711CC3CFAF81B885189621
:101450008D919C9119970E94D52BEF81F8858285FB
:101460009385892B81F100E010E01C821B8224E42B
:101470002C9DC0012D9D900D11249C01205E3C4FA0
:1014800059012B813C81241535058CF4D501ED9152
:10149000FC91E00FF11F848195810E94D52BEB8197
:1014A000FC813196FC83EB83025F1F4FEACF84E41B
:1014B0008C9DF0018D9DF00D1124EA5EFC4F82851C
:1014C00093850E94D52B84E48C9DD0018D9DB00D19
:1014D0001124AA5EBC4FBC83AB8350968D919C9126
:1014E00051970E94D52BEB81FC81868597850E94C0
:1014F000D52BC701B60191DDC701B60128960FB6FD
:10150000F894DEBF0FBECDBFDF91CF911F910F9139
:10151000FF90EF90DF90CF90BF90AF909F908F9013
:101520007F906F905F904F903F902F90E4CE2896E1
:101530000FB6F894DEBF0FBECDBFDF91CF911F91E4
:101540000F91FF90EF90DF90CF90BF90AF909F9062
:101550008F907F906F905F904F903F902F90089565
:1015600024E4269FF001279FF00D1124EA5EFC4F32
:10157000828993890497029758F485E090E0938BD1
:10158000828B8FEF9FEFDC01828F938FA48FB58FBB
:1015900008952F923F924F925F926F927F928F9217
:1015A0009F92AF92BF92CF92DF92EF92FF920F93F2
:1015B0001F93CF93DF93CDB7DEB7AA970FB6F894FA
:1015C000DEBF0FBECDBF9AA389A3788F6F8B7A0140
:1015D000098B1A8B2B8B3C8B84E429893A89829F57
:1015E0006001839FD00C112486010A5E1C4F8989FB
:1015F0009A89AB89BC89F80180839183A283B383E4
:10160000AB01BC01CD01A3DED601A65EBC4F84E0D8
:10161000F70101900D928A95E1F71701F4E02F0E82
:10162000311C64E070E0D80114968D919C9115975F
:101630000E94232BF80191878087892B09F481C1AF
:101640001E8E1D8E198E1A8E1B8E1C8E18A30F8F48
:1016500098012C5F3F4F38A72FA3A801485F5F4F29
:101660005AA749A7EFA1F8A580819181A281B381F2
:10167000298D3A8D4B8D5C8D281739074A075B07FA
:101680000CF0CEC0A9A5BAA58D919C91ED8DFE8DD3
:10169000E80FF91FFE8BED8BD101ED91FC91EE0F60
:1016A000FF1FA9A1BAA18D919C91E80FF91F80811C
:1016B0009181ED89FE8991838083D10114962D91CA
:1016C0003D914D915C9117972BA33CA34DA35EA335
:1016D000B8E02B0E311C62E070E08F89988D0E947B
:1016E000232BED89FE8993838283892B09F429C1F9
:1016F000412C512C32012BA13CA14DA15EA14216DF
:101700005306640675060CF025C15101F4E0AF0ED6
:10171000B11CD101ED90FC90EE0CFF1CED89FE890F
:10172000028113810E0D1F1D68E070E081E090E0E2
:101730000E94232BD8018D939C93ED89FE89828191
:101740009381FC01EE0DFF1DC080D180C114D10436
:1017500009F4F7C084E0F501D60101900D928A9555
:10176000E1F7F8E02F0E311CF60180819181A28112
:10177000B381181619061A061B060CF04BC064E05C
:1017800070E00E94232BD60115969C938E9314979C
:10179000892B09F4D6C0E12CF12C812C912C540119
:1017A000F60180819181A281B38188169906AA06EB
:1017B000BB0684F5F601048115810E0D1F1D80E125
:1017C000F101DE01119601900D928A95E1F7F0E1A9
:1017D0002F0E311CA801BE016F5F7F4FA9A1BAA1D6
:1017E00014968D919C91159784DCF60126813781A2
:1017F000D80112968D919C911397820F931F978316
:101800008683BFEF8B1A9B0AAB0ABB0AE4E0EE0E9D
:10181000F11CC6CFFFEF4F1A5F0A6F0A7F0A6BCF2A
:101820006EE070E08F89988D0E94232BAF8DB8A158
:101830001B969C938E931A97A12CB12CC12CD12C62
:10184000E12CF12C24E4E989FA892E9FC0012F9F15
:10185000900D11249C01205E3C4F3E8B2D8B8824E3
:101860008394912C4F89588DC416D5060CF041C035
:10187000D1014D905D906D907D901D01ED89FE89A7
:10188000008111810A0D1B1D77FC5BC0D8011196E8
:101890009C928E92411451046104710449F0C2017A
:1018A0000E943D2BF80195838483892B31F449C034
:1018B000D80115961C921E921497F8015382428209
:1018C000848195819783868391878087138612868A
:1018D00081E090E045284628472811F480E090E018
:1018E000E80EF91EFFEFCF1ADF0A2EE0A20EB11CA0
:1018F000B9CF84E4A989BA898A9F80018B9F100D92
:1019000011240A5E1C4FF80115861486C70133E0C6
:10191000880F991F3A95E1F70E943D2BD801519607
:101920009C938E935097892B61F0C701880F991F64
:101930000E943D2BF80197878687892B11F080E064
:101940001CC04F89588D69897A898B899C89FFDCF5
:1019500081E013C0298D3A8D4B8D5C8D2F5F3F4FF9
:101960004F4F5F4F298F3A8F4B8F5C8F4D8D5E8D20
:101970004C5F5F4F5E8F4D8F75CEAA960FB6F89471
:10198000DEBF0FBECDBFDF91CF911F910F91FF90B2
:10199000EF90DF90CF90BF90AF909F908F907F900F
:1019A0006F905F904F903F902F9008952F923F92AD
:1019B0004F925F926F927F928F929F92AF92BF925F
:1019C000CF92DF92EF92FF920F931F93CF93DF930B
:1019D000CDB7DEB768970FB6F894DEBF0FBECDBFA8
:1019E0009C8B8B8B69017A0124E42C9DC0012D9D79
:1019F000900D11249C012A5E3C4F5901FB0120816E
:101A00003181F501358B248BDC01A45DBC4FFB01DA
:101A1000349624E001900D922A95E1F7DC01A05D57
:101A2000BC4FFB01389624E001900D922A95E1F716
:101A3000DC01AC5CBC4FFB013C9624E001900D92B4
:101A40002A95E1F7DC01AC5BBC4FFB01709684E0AA
:101A500001900D928A95E1F78B010C5E1F4FF50105
:101A600086A597A5A0A9B1A9181619060CF064C0FF
:101A7000880F991F880F991F0E943D2BF50193AB8A
:101A800082AB892B09F4B5C0812C912C412C512CAF
:101A900032019501225D3F4F3E8B2D8BC501C296D1
:101AA000988F8F8BF496FA8BE98BB301A2012FEFFD
:101AB000421A520A620A720AED89FE898081918176
:101AC000A281B381481759076A077B0754F5EF894C
:101AD000F88D20803180280C391C80E1F801DE016E
:101AE000119601900D928A95E1F7005F1F4FA101B9
:101AF000BE016F5F7F4FEB89FC8984819581F9DAA4
:101B0000E989FA8920813181F10182819381820FF3
:101B1000931FE989FA8991838083F4E08F0E911CE9
:101B2000C4CFF50184A995A90E943D2BF50197AB7F
:101B300086AB892B09F45DC0F80180819181A28177
:101B4000B38124E42C9DF0012D9DF00D1124EA5E5B
:101B5000FC4FAC01BD014D7F21E030E0452B462B11
:101B6000472B11F020E030E033A322A324E42C9D86
:101B7000F0012D9DF00D1124EA5EFC4F0197A109A3
:101B8000B10921E030E00297A105B10510F020E095
:101B900030E035A324A324E42C9DC0012D9D900D9D
:101BA0001124DC01A45CBC4FF801349624E00190C0
:101BB0000D922A95E1F7FC01EA5EFC4F868D978D28
:101BC000A0A1B1A1B7FF10C0B095A0959095819547
:101BD0009F4FAF4FBF4F82AF93AFA4AFB5AF168E3D
:101BE000178E10A211A20AC012AE13AE14AE15AE1B
:101BF00005C0C701B60111DA81E001C080E0689636
:101C00000FB6F894DEBF0FBECDBFDF91CF911F910D
:101C10000F91FF90EF90DF90CF90BF90AF909F908B
:101C20008F907F906F905F904F903F902F9008958E
:101C3000CF92DF92EF92FF92CF93DF9310929E03A9
:101C400024E4269FF001279FF00D1124EA5EFC4F4B
:101C500015A614A620E030E0C12CD12CDF011A9685
:101C6000C1E0D0E0C416D506D4F4ED91FC911197F3
:101C7000E20FF31FE280F3801E141F0454F4E4808B
:101C8000F580F782E682F186E08613861286D1839C
:101C9000C083EFEFCE1ADE0A225F3F4FE3CF24E48A
:101CA000269FF001279FF00D1124EA5EFC4F13A63A
:101CB00012A611AE10AEDF01DE961D921D921D928E
:101CC0001C92139782E090E0938B828BDF91CF91EF
:101CD000FF90EF90DF90CF90089524E4269FF001CD
:101CE000279FF00D1124EA5EFC4F138A128A2FCB36
:101CF00024E4269FF001279FF00D1124EA5EFC4F9B
:101D00008289938981309105C8F08530910518F05A
:101D1000059769F008958FEF9FEFDC01828F938F15
:101D2000A48FB58F85E090E0938B828B08958FEF21
:101D30009FEFDC01828F938FA48FB58F089524E4E9
:101D4000249FF001259FF00D1124EA5EFC4F2EE048
:101D5000AC01249FC001259F900D11240284F385BE
:101D6000E02DE80FF91F81E080939E038285938523
:101D700091878087408551852681378181E090E079
:101D80004217530711F080E090E09183808308951B
:101D90002F923F924F925F926F927F928F929F927B
:101DA000AF92BF92CF92DF92EF92FF920F931F9369
:101DB000CF93DF93CDB7DEB7C055D1090FB6F894F6
:101DC000DEBF0FBECDBF9EAF8DAF4BA75CA76DA78B
:101DD0007EA76801790184E48C9D80018D9D100DA2
:101DE0001124F801EA5EFC4F2285338525963FAF2A
:101DF0002EAF259782899389029709F05FC186A546
:101E000097A5A0A9B1A9892B8A2B8B2B29F484E053
:101E100090E0938B828B52C1848995894DAD5EADE4
:101E20004817590709F04AC186A997A998AB8FA707
:101E30001CAE1BAE1FAA18AE19AE1AAE8F01DF0181
:101E40009E962796BFAFAEAF2797F2962996FFAF23
:101E5000EEAF29979801285C3F4F2B963FAF2EAFEE
:101E60002B97A8014A5D5F4F2D965FAF4EAF2D9720
:101E7000C80182962F969FAF8EAF2F971A976196C3
:101E8000BFAFAEAF61972796EEADFFAD27978081CC
:101E90009181A281B3812FA938AD49AD5AAD2817E0
:101EA00039074A075B070CF0E8C02996EEADFFAD95
:101EB0002997808191812BAD3CAD280F391F3CAB18
:101EC0002BABD90112960D90BC91A02D2196BFAFDE
:101ED000AEAF2197B695A795B695A7952396BFAFB8
:101EE000AEAF23972B96EEADFFAD2B9780819181FE
:101EF000892B09F497C02D96AEADBFAD2D978D906F
:101F00009D90AD90BC902FA438A8F9010190F0816C
:101F1000E02DFAABE9AB1EAA1DAA23968EAD9FADAC
:101F20002397ADA9BEA9A817B9070CF07BC02F96BF
:101F3000AEADBFAD2F978D919C91892B71F1E9A921
:101F4000FAA94080518062807380A3019201C5018B
:101F5000B4010E94B729181664F0D1012D913D916A
:101F60004D915C91C501B4010E946D2A18160CF4C4
:101F70008CC0A3019201C501B4010E94B72987FF5B
:101F80000CC0F1012081318142815381C501B4012E
:101F90000E94B729882309F478C06196AEADBFAD21
:101FA00061978D919C91892B69F1E9A9FAA94080EB
:101FB000518062807380A3019201C501B4010E9427
:101FC0006D2A181664F4D1012D913D914D915C91CB
:101FD000C501B4010E94B72918160CF056C0A30120
:101FE0009201C501B4010E94B72981110BC0F10112
:101FF0002081318142815381C501B4010E94B729FA
:1020000087FD43C02DA93EA92F5F3F4F3EAB2DABAF
:1020100034E0230E311C49A95AA94C5F5F4F5AABDB
:1020200049AB7BCFEBA9FCA96081718121964EADB4
:102030005FAD21978FA598A90E945E2C23968EAD47
:102040009FAD2397880F991F880F991F2FA538A937
:10205000280F391F38AB2FA78FA998ADA9ADBAADFE
:102060000196A11DB11D8FAB98AFA9AFBAAFABADB3
:10207000BCAD1496BCAFABAF06CF81E090E0D80109
:10208000D9969C938E93D89719C084E48C9DF001C7
:102090008D9DF00D1124EA5EFC4F868D978DA0A1D9
:1020A000B1A1892B8A2B8B2B09F059C284E090E0D7
:1020B000938B828B86AD97AD93A782A784E48C9D8A
:1020C000F0018D9DF00D1124EA5EFC4F8289938909
:1020D0008230910579F482AD93ADA4ADB5AD1816FB
:1020E00019061A061B060CF041C2E1E0F0E0FAAB5B
:1020F000E9AB05C0049709F039C21AAA19AA8EE003
:102100002DAD3EAD829F8001839F100D1124259639
:102110004EAD5FAD2597040F151FD80112962D9176
:102120003C9113972115310509F420C216968D9123
:102130009C9117979AA789A7FE01319684E1DF0148
:102140001D928A95E9F7C98ADA8AEB8AFC8AE9A99D
:10215000FAA9EF2B09F451C084E48C9DF0018D9D08
:10216000F00D1124EA5EFC4FDF01DE968D909D900C
:10217000AD90BC9082AD93ADA4ADB5AD8816990677
:10218000AA06BB06D1F5D80114964D915C9115971E
:102190001896ED91FC911997349684E0DE015596DE
:1021A00001900D928A95E1F78D899E8908969E8B04
:1021B0008D8BF80160857185860F971F91878087C9
:1021C00080859185240F351F821B930B97FD04C0DA
:1021D000840F951F9187808784E48C9DF0018D9DED
:1021E000F00D1124EC5AFC4F21E0821A9108A1084D
:1021F000B10880829182A282B3829E012B5E3F4F02
:10220000AE01475D5F4F64E170E0C8010E94A40722
:10221000282E312C2114310409F08AC18CE090E081
:10222000A0E0B0E08D839E83AF83B8879E01235EDC
:102230003F4FAE01475D5F4F64E070E0C8010E9410
:10224000A407282E312C2114310409F071C180E13A
:1022500090E0A0E0B0E08D839E83AF83B8874D8D82
:102260005E8DBE01655D7F4F8F8D98A10E945E2CB3
:102270008BA19CA1009761F06D8D7E8D4BE250E0AB
:102280004C0F5D1F640F751F49A15AA10E945E2C5F
:102290001DA21EA21FA218A68DAD9EAD880F991F6C
:1022A00098AF8FAB24E42C9DC0012D9D900D11247F
:1022B0008A5E9C4FDC011496BCAFABAFFC01389634
:1022C0002196FFAFEEAF21978DA09EA0AFA0B8A43E
:1022D000EBADFCAD80819181A281B3818816990616
:1022E000AA06BB060CF0CDC02196AEADBFAD2197BE
:1022F000ED91FC91C401880F991F880F991FE80F79
:10230000F91FA081B1818C9181110AC0BFEF8B1A96
:102310009B0AAB0ABB0A8DA29EA2AFA2B8A6D4CFDD
:102320008330A1F30280F381E02D2FA938ADE20FB5
:10233000F31F408151815CAB4BAB452B39F3898551
:102340009A85AB85BC850196A11DB11D89879A87A9
:10235000AB87BC879E01235E3F4FAE01475D5F4F59
:1023600064E070E0C8010E94A40790E0009709F0C3
:10237000DEC08D819E81AF81B8850496A11DB11DFF
:102380008D839E83AF83B8874D8D5E8DBE016B5D5F
:102390007F4F8F8D98A10E945E2C8BA19CA10097EE
:1023A00061F06D8D7E8DA5E2B0E0AC0FBD1F6A0FB0
:1023B0007B1F49A15AA10E945E2C1EAA1DAA412C76
:1023C000512C3201EBA9FCA980819181A281B381BA
:1023D000481659066A067B060CF098CFEBA9FCA9B3
:1023E000848195812DA93EA9280F391F38AB2FA7CD
:1023F000D90112966D917C9113979E01235E3F4FF8
:10240000AE01475D5F4FC8010E94A40790E00097AE
:1024100009F08DC0EFA5F8A982819381092E000CE7
:10242000AA0BBB0B4D815E816F817885840F951F50
:10243000A61FB71F8D839E83AF83B887608171818C
:102440004D8D5E8D8F8D98A10E945E2C8BA19CA1DD
:10245000009761F0AFA5B8A96D917C912D8D3E8D4F
:10246000620F731F49A15AA10E945E2CBFEF4B1A45
:102470005B0A6B0A7B0AEDA9FEA93496FEABEDABB5
:10248000A1CF89859A85AB85BC85892B8A2B8B2B1F
:1024900009F44EC08AE190E0A0E0B0E089839A831D
:1024A000AB83BC832DAD3EADC901330FAA0BBB0B73
:1024B0008D879E87AF87B88B4D895E89BE016F5F20
:1024C0007F4F8F89988D0E945E2C8B8D9C8D0097FD
:1024D00061F06D897E8941E050E04C0F5D1F640F13
:1024E000751F498D5A8D0E945E2C89A59AA5D80129
:1024F00017969C938E93169711961C921E92E9A99B
:10250000FAA9EF2B99F184E48C9DF0018D9DF00DDB
:102510001124EC5AFC4F80819181A281B3810196F4
:10252000A11DB11D80839183A283B3831FC01C01B1
:1025300029A93AA9232BD1F42328C1F084E48C9D46
:10254000F0018D9DF00D1124EA5EFC4F81E090E0DA
:1025500095A784A785E090E0938B828B07C083E0EA
:1025600090E0938B828B81E090E0A6CDC05BDF4F43
:102570000FB6F894DEBF0FBECDBFDF91CF911F9194
:102580000F91FF90EF90DF90CF90BF90AF909F9012
:102590008F907F906F905F904F903F902F90089515
:1025A000CF92DF92EF92FF920F931F9324E4269F26
:1025B000F001279FF00D1124EA5EFC4F2289338938
:1025C0002115310509F453C06B017C01213031051F
:1025D000B9F482A593A59C012F5F3F4F33A722A793
:1025E000092E000CAA0BBB0B028D138D248D358D8B
:1025F00080179107A207B307D1F5C701B60118DB11
:1026000084E48C9DF0018D9DF00D1124EA5EFC4F59
:1026100082899389039759F582A593A59C012F5F21
:102620003F4F33A722A7092E000CAA0BBB0B468DE8
:10263000578D60A171A184179507A607B707BCF055
:1026400086AD97AD93A782A784E090E0938B828BB1
:1026500082AD93ADA4ADB5AD181619061A061B06CA
:1026600034F4EE5BFF4F81E090E0918380831F9113
:102670000F91FF90EF90DF90CF90089524E4269F74
:10268000F001279FF00D1124EA5EFC4F82899389A7
:102690000497B1F482A593A5019693A782A7092E6A
:1026A000000CAA0BBB0B46895789608D718D84176E
:1026B0009507A607B70721F485E090E0938B828BFE
:1026C00008952F923F924F925F926F927F928F92D6
:1026D0009F92AF92BF92CF92DF92EF92FF920F93B1
:1026E0001F93CF93DF93CDB7DEB72E970FB6F89435
:1026F000DEBF0FBECDBF49835A836B837C83490104
:10270000442E552E24E4249DF001259DF00D112426
:10271000EA5EFC4F2288338891012450310922302F
:10272000310508F0DFC0DC0111961C921E92139651
:102730001C921E92129715861486A12CB12C60E073
:1027400070E09F01265F3F4F38872F837F013CE079
:10275000E30EF11CDF015096BA87A9879F01225F23
:102760003F4F3C872B87681579050CF06FC0EF81D0
:10277000F885A081B1819D012A0D3B1D3E872D87E3
:10278000D9012D913C911197232B09F059C018962E
:102790000D911C9119971296ED91FC911397FE8360
:1027A000ED8316962D913C911797D7014D915C9131
:1027B000DA01E3E0AA0FBB1FEA95E1F7E985FA85A4
:1027C000C080D180FD01EC0DFD1D440F551FAB8570
:1027D000BC85CD90DC904C0D5D1DDA016D937C9332
:1027E000D7014D915C9111974F5F5F4F4D935C9373
:1027F00013830283AD85BE851B963C932E931A9757
:102800000217130748F4201B310B318320831582F4
:1028100014821782168214C0AD85BE851496CD90A1
:10282000DC9015974D815E814C0D5D1D401B510B59
:10283000518340832C193D0935832483D782C68276
:102840006F5F7F4FBEE0AB0EB11C8DCF24E4249DA3
:102850008001259D100D11240A5E1C4FF80124856E
:102860003585DC0111963C932E934089518913964E
:102870005C934E9312974685578515965C934E93BD
:102880001497232BB1F5B5E02B16310491F5109276
:102890009E03828D938DA48DB58DAE014F5F5F4FEA
:1028A00064E070E08F3F9F4FAF4FBF4F59F480E21D
:1028B00090E00E94D51C69817A818B819C81A40162
:1028C0000CDA17C08FE190E00E94D51CD8019B96CE
:1028D0001C921E929A9781E090E053969C938E935F
:1028E000529707C015861486FC011182108213824C
:1028F00012822E960FB6F894DEBF0FBECDBFDF91C9
:10290000CF911F910F91FF90EF90DF90CF90BF90EC
:10291000AF909F908F907F906F905F904F903F907F
:102920002F900895EF92FF920F931F93CF93DF9311
:102930007C018B01EA010E94BC1D811121C08091A4
:10294000C0019091C101049711F183E090E0909350
:10295000C1018093C0011BC088818111F0CF28ED97
:1029600038EB45E050E060E070E0CB010E9445208C
:10297000AE01B801C7010E945320C8010E941E2069
:1029800080919F039091A003892B31F3D8CFDF91E1
:10299000CF911F910F91FF90EF900895CF93DF9308
:1029A0002091C0013091C1012430310541F0EB018B
:1029B0000E945320CE01DF91CF910C941E20DF9115
:1029C000CF9108950C9434240C9429240C9417244A
:1029D0000C942E200C94BA23089560E070E080E0FF
:1029E00090E00C94971D0895AF92BF92CF92DF9222
:1029F000EF92FF920F931F93CF93DF9300D0CDB749
:102A0000DEB75C0169017A018B0180E090E0C114BE
:102A1000D104E104F104F1F0C114D10421E0E20693
:102A2000F10410F4A60102C04FEF5FEF9E012F5F8B
:102A30003F4FB801C5010E94C5248F3F2FEF920779
:102A400049F029813A81C21AD30AE108F108020F3C
:102A5000131FDDCF0F900F90DF91CF911F910F913A
:102A6000FF90EF90DF90CF90BF90AF9008950895C2
:102A700008951F920F920FB60F9211242F933F9338
:102A80004F935F936F937F938F939F93AF93BF9376
:102A9000EF93FF93E091C201F091C3010995FF917B
:102AA000EF91BF91AF919F918F917F916F915F91C6
:102AB0004F913F912F910F900FBE0F901F9018953F
:102AC0001F920F920FB60F9211242F933F934F93A3
:102AD0005F936F937F938F939F93AF93BF93EF9386
:102AE000FF93E091C401F091C5010995FF91EF9129
:102AF000BF91AF919F918F917F916F915F914F9116
:102B00003F912F910F900FBE0F901F9018951F921D
:102B10000F920FB60F9211242F933F938F939F9391
:102B2000AF93BF938091A2039091A303A091A403BC
:102B3000B091A5033091A10323E0230F2D3720F49A
:102B40000196A11DB11D05C026E8230F0296A11D07
:102B5000B11D2093A1038093A2039093A303A0939C
:102B6000A403B093A5038091A6039091A703A0911D
:102B7000A803B091A9030196A11DB11D8093A603DE
:102B80009093A703A093A803B093A903BF91AF911B
:102B90009F918F913F912F910F900FBE0F901F909B
:102BA00018953FB7F8948091A6039091A703A09140
:102BB000A803B091A90326B5A89B05C02F3F19F023
:102BC0000196A11DB11D3FBFBA2FA92F982F8827AD
:102BD000820F911DA11DB11DBC01CD0142E0660F08
:102BE000771F881F991F4A95D1F708958F929F925A
:102BF000AF92BF92CF92DF92EF92FF926B017C0176
:102C0000D0DF4B015C01C114D104E104F104F1F007
:102C10002EDFC7DFDC01CB0188199909AA09BB099E
:102C2000883E9340A105B10570F321E0C21AD10896
:102C3000E108F10888EE880E83E0981EA11CB11C03
:102C4000C114D104E104F10421F7DDCFFF90EF902E
:102C5000DF90CF90BF90AF909F908F900895789421
:102C600084B5826084BD84B5816084BD85B5826091
:102C700085BD85B5816085BDEEE6F0E0808181602F
:102C80008083E1E8F0E0108280818260808380812F
:102C900081608083E0E8F0E0808181608083E1EB07
:102CA000F0E0808184608083E0EBF0E080818160EF
:102CB0008083EAE7F0E080818460808380818260A5
:102CC000808380818160808380818068808310928E
:102CD000C1000895833081F028F4813099F082306A
:102CE000A1F008958730A9F08830B9F08430D1F48C
:102CF000809180008F7D03C0809180008F778093CA
:102D00008000089584B58F7702C084B58F7D84BD1F
:102D100008958091B0008F7703C08091B0008F7DBF
:102D20008093B00008951F93CF93DF93282F30E056
:102D3000F901E857FF4F8491F901E456FF4FD49110
:102D4000F901E055FF4FC491CC23B9F0162F811142
:102D5000C1DFEC2FF0E0EE0FFF1FEC53FF4FA5910A
:102D6000B4919FB7F894111104C08C91D095D823D9
:102D700002C0EC91DE2BDC939FBFDF91CF911F91BE
:102D80000895FC01918D228D892F90E0805C9F4FEA
:102D9000821B91098F7399270895FC01918D828D73
:102DA000981731F0828DE80FF11D858D90E0089520
:102DB0008FEF9FEF0895FC01918D828D981761F040
:102DC000828DDF01A80FB11D5D968C91928D9F5F62
:102DD0009F73928F90E008958FEF9FEF0895FC010D
:102DE000538D448D252F30E0842F90E0821B930B70
:102DF000541710F0CF96089501970895FC01848D23
:102E0000DF01A80FB11DA35ABF4F2C91848D90E014
:102E100001968F739927848FA689B7892C93A089EF
:102E2000B1898C91837080648C93938D848D981379
:102E300006C00288F389E02D80818F7D808308950C
:102E4000EF92FF920F931F93CF93DF93EC0181E0FA
:102E5000888F9B8D8C8D981305C0E889F9898081B6
:102E600085FD25C0F62E0B8D10E00F5F1F4F0F73F1
:102E70001127E02E8C8DE8120BC00FB607FCFACF9D
:102E8000E889F989808185FFF5CFCE01B7DFF2CFE0
:102E90008B8DFE01E80FF11DE35AFF4FF0829FB7C3
:102EA000F8940B8FEA89FB89808180620AC09FB702
:102EB000F894EE89FF896083E889F98980818370BD
:102EC000806480839FBF81E090E0DF91CF911F916C
:102ED0000F91FF90EF900895CF93DF93EC01888DD1
:102EE0008823C1F0EA89FB89808185FD05C0A88916
:102EF000B9898C9186FD0EC00FB607FCF5CF808195
:102F000085FFF2CFA889B9898C9185FFEDCFCE01DD
:102F100075DFE8CFDF91CF910895CF92DF92EF92E6
:102F2000FF921F93CF93DF93EC016A017B01122F75
:102F3000E889F98982E080834115514E6105710568
:102F4000B1F060E079E08DE390E0A70196010E9486
:102F5000E72ADA01C9010197A109B109B695A79538
:102F6000979587959C01211580E13807A8F0E8899D
:102F7000F989108260E874E88EE190E0A70196017B
:102F80000E94E72ADA01C9010197A109B109B695A2
:102F9000A795979587959C01EC85FD853083EE85F7
:102FA000FF852083188EEC89FD891083EA89FB89CF
:102FB000808180618083EA89FB8980818860808349
:102FC000EA89FB89808180688083EA89FB89808126
:102FD0008F7D8083DF91CF911F91FF90EF90DF90E5
:102FE000CF90089580E090E008951F920F920FB661
:102FF0000F9211242F938F939F93EF93FF93E09160
:10300000BA03F091BB038081E091C003F091C1034A
:1030100082FD12C090818091C3038F5F8F732091D6
:10302000C403821751F0E091C303F0E0E655FC4F72
:10303000958F8093C30301C08081FF91EF919F9191
:103040008F912F910F900FBE0F901F9018951F9288
:103050000F920FB60F9211242F933F934F935F93CC
:103060006F937F938F939F93AF93BF93EF93FF9350
:103070008AEA93E0C3DEFF91EF91BF91AF919F91F8
:103080008F917F916F915F914F913F912F910F9011
:103090000FBE0F901F901895EAEAF3E01382128298
:1030A00088EE93E0A0E0B0E084839583A683B783A5
:1030B0008BE792E09183808385EC90E0958784870D
:1030C00084EC90E09787868780EC90E0918B808BF2
:1030D00081EC90E0938B828B82EC90E0958B848BDB
:1030E00086EC90E0978B868B118E128E138E148E49
:1030F0000895CF92DF92EF92FF920F931F93CF9399
:10310000DF936C017A018B01C0E0D0E0CE15DF05C2
:1031100081F0D8016D918D01D601ED91FC91019066
:10312000F081E02DC6010995892B11F02196EECF93
:103130007E01C701DF91CF911F910F91FF90EF901A
:10314000DF90CF900895813039F018F0823051F03F
:10315000089510926E00089580916F008D7F809386
:103160006F000895809170008D7F8093700081E0E2
:103170008093B0008091B100887F84608093B1001B
:103180001092B3000895CF93C82F8091C601C81341
:1031900007C0EEECF0E084919FEF9093C60101C070
:1031A0008FEFD1DF60E08C2FCF91BDCD1F920F92BA
:1031B0000FB60F9211242F933F934F935F936F930A
:1031C0007F938F939F93AF93BF93EF93FF938091E0
:1031D0004A0490914B04A0914C04B0914D04892B6A
:1031E0008A2B8B2B51F190914704E0914804F09188
:1031F000490480818927808380914A0490914B04FF
:10320000A0914C04B0914D04181619061A061B061D
:10321000BCF480914A0490914B04A0914C04B0916D
:103220004D040197A109B10980934A0490934B047E
:10323000A0934C04B0934D0403C08091C601A3DF5A
:10324000FF91EF91BF91AF919F918F917F916F917E
:103250005F914F913F912F910F900FBE0F901F9054
:10326000189540E855E260E070E080E090E000C032
:1032700026E08AEA93E051CE1F920F920FB60F928A
:1032800011242F933F934F935F936F937F938F936B
:103290009F93AF93BF93EF93FF9386E997EE90933D
:1032A0008500809384000E94AD28FF91EF91BF912B
:1032B000AF919F918F917F916F915F914F913F91CE
:1032C0002F910F900FBE0F901F90189586E997EEE3
:1032D0009093850080938400AFE6B0E08C918E7F60
:1032E0008C93E0E8F0E080818C7F8083E1E8F0E07F
:1032F0008081877E808380818460808380818C7FD1
:1033000080838C9181608C93089581E008956F9201
:103310007F928F929F92AF92BF92CF92DF92EF9265
:10332000FF920F931F93CF93DF933C017B015A01D0
:1033300001E010E00E151F0564F568018FEFC81A53
:10334000D80AE801CC0FDD1FCA0DDB1D88809980EB
:1033500081149104E1F069E872E0C4010E946E2CCE
:10336000892B19F41982188212C06CE872E0C4012A
:103370000E946E2C892B59F4EC14FD0441F0680175
:10338000E2E0CE0ED11C198218821B821A828601BD
:10339000D1CF81E0F3018083B501C7010E945F2492
:1033A000F3019283818380E090E0DF91CF911F91C0
:1033B0000F91FF90EF90DF90CF90BF90AF909F90D4
:1033C0008F907F906F9008958EE494E0089580E050
:1033D00008950F931F93CF93DF938B01BA01E901F7
:1033E000198218829801012E000C440B550BFC0128
:1033F00081819281F9DA019621F01983088380E0B6
:1034000001C081E0DF91CF911F910F9108950F933B
:103410001F93CF93DF9300D0CDB7DEB7FB018A01B6
:10342000B9019E012F5F3F4FAF01FC018181928165
:103430000E947624019639F089819A81F80191835E
:10344000808380E001C081E00F900F90DF91CF91E9
:103450001F910F910895FC018081089508950895AA
:1034600081E0FB01808380E0089508951092760446
:103470000895FC01818192810C945624CF93DF93AF
:10348000CDB7DEB72A970FB6F894DEBF0FBECDBF1B
:10349000AC01CB0160E070E049835A836B837C838D
:1034A000092E000CAA0BBB0B8D839E83AF83B887BC
:1034B0009E01275F3F4FAE014F5F5F4F68E070E0B6
:1034C000809165049091660484DF811108C081E0D9
:1034D00029853A852830310519F480E001C081E062
:1034E0002A960FB6F894DEBF0FBECDBFDF91CF9105
:1034F00008950F931F93CF93DF9300D0CDB7DEB71E
:103500008B019E012F5F3F4FAC018091650490912C
:1035100066045FDF811108C081E029813A812017AC
:10352000310719F480E001C081E00F900F90DF9126
:10353000CF911F910F910895CF93DF93EC011092DB
:103540006904109268041092750410927404AC011E
:1035500060E070E0CB010E946D0EAE0161E070E0B2
:1035600080E090E00E946D0E809165049091660469
:10357000DF91CF917ACF4F925F926F927F928F922D
:103580009F92AF92BF92CF92DF92EF92FF920F93F2
:103590001F93CF93DF9300D0CDB7DEB79C016C01B2
:1035A00097FF03C087E0C80ED11C43E0D594C794B1
:1035B0004A95E1F7C90168E070E00E94D42A5C01F5
:1035C00089010E5F1F4F80916304909164048017FE
:1035D00091070CF0AEC08091610490916204009755
:1035E00031F00E94D52B1092640410926304C8013C
:1035F0000E943D2B9093620480936104892B19F4FF
:1036000000E010E033C0109364040093630491C0A1
:1036100089819A81E80EF91E8AE0E816F10409F022
:1036200078C149E050E060E070E08AE694E00E94F2
:10363000F7246091740470917504882309F49BC188
:103640008091720490E08617970781F4BC018EEE9A
:1036500090E014DF8091740490917504019699278D
:1036600090937504809374040F5F1F4F0C151D0514
:103670000CF47BC1AB2809F460C1C12CD12C7601BC
:1036800000E010E0980126593B4FAE014F5F5F4FBD
:1036900061E070E08091650490916604B8DE81116C
:1036A0004CC18FEFC81AD80AE80AF80A80E9C81690
:1036B0008FE5D80681E0E806F1043CF060917404DF
:1036C000709175048DEE90E02DC089819A81080F6C
:1036D000191F0A30110541F549E050E060E070E043
:1036E0008AE694E00E94F724609174047091750456
:1036F0008823B1F08091720490E08617970709F053
:103700001CC1BC018EEE90E0B9DE809174049091F2
:1037100075040196992790937504809374040DC1E4
:103720008FEE90E0ABDEA9CF0A3011050CF4AACFE2
:1037300004C100E010E00C151D050CF078C0412C10
:10374000512C3201E12CF12C480193E0880C991C9A
:103750009A95E1F72091610430916204C701880DC8
:10376000991D280F391FAE014F5F5F4F61E070E078
:1037700080916504909166044ADE8111DEC08FEF6E
:10378000481A580A680A780A80E948168FE55806E8
:1037900081E0680671043CF06091740470917504D6
:1037A0008DEE90E037C089819A81E80EF91E8AE09B
:1037B000E816F104B1F549E050E0B40180916104EC
:1037C000909162040E94F7246091740470917504D2
:1037D0008823F1F08091610490916204FC01E80D6E
:1037E000F91D808590E08617970709F0A4CFBC01EA
:1037F0008EEE90E043DE8091740490917504019602
:10380000992790937504809374040F5F1F4F93CF93
:103810008FEE90E033DE412C512C3201E12CF12C63
:1038200099CF8AE0E816F1040CF494CF84CFA11468
:10383000B10409F4A3C0412C512C3201E12CF12C2C
:10384000970126593B4FAE014F5F5F4F61E070E03B
:103850008091650490916604DADD81116EC08FEF6E
:10386000481A580A680A780A80E948168FE5580607
:1038700081E0680671043CF06091740470917504F5
:103880008DEE90E03EC089819A81E80EF91E8AE0B3
:10389000E816F104C1F549E050E060E070E08AE626
:1038A00094E00E94F7246091740470917504882359
:1038B00031F18091720490E08617970709F05EC09D
:1038C000BC018EEE90E0DADD83E0000F111F8A95D7
:1038D000E1F78091610490916204A5016AE674E0C9
:1038E000800F911F0E945E2C80917404909175044A
:1038F0000196992790937504809374043FC08FEECE
:1039000090E0BCDD98CF8AE0E816F1040CF498CF83
:1039100035C08AE0E816F1040CF0A8CE97012659CC
:103920003B4FAE014F5F5F4F61E070E080916504F7
:10393000909166046CDD882319F080E090E022C04D
:103940008FEF481A580A680A780A80E948168FE506
:10395000580681E0680671040CF45ACE6091740434
:10396000709175048DEE90E089DD412C512C32016F
:10397000E12CF12CD3CF8FEE90E0F6CF8091610453
:10398000909162040F900F90DF91CF911F910F9152
:10399000FF90EF90DF90CF90BF90AF909F908F906F
:1039A0007F906F905F904F900895CF92DF92EF924B
:1039B000FF920F931F93CF93DF931F92CDB7DEB784
:1039C0006C017B018A01452B39F0AB0160E070E0AE
:1039D000C8010E94F3248983B701C6014FDD81111C
:1039E0000DC00115110551F0B701C80182DD81112B
:1039F00005C061E070E0CE0101967BDD0F90DF91A4
:103A0000CF911F910F91FF90EF90DF90CF9008958D
:103A1000CF92DF92EF92FF92CF93DF93CDB7DEB7D5
:103A200028970FB6F894DEBF0FBECDBF6B01E12C17
:103A3000F12CC982DA82EB82FC822D833E834F8394
:103A40005887AE014F5F5F4F68E070E0AEDF2896A9
:103A50000FB6F894DEBF0FBECDBFDF91CF91FF90C0
:103A6000EF90DF90CF9008958F929F92AF92BF9288
:103A7000CF92DF92EF92FF920F931F93CF93DF933A
:103A8000EC017B01CA01690176DD009749F42FEF53
:103A90003FEFA90161E070E0CE01BADF81E03AC0FA
:103AA000FC0180809180A280B380CB31D10561F090
:103AB000CC31D105E9F4BC016C5F7F4FA5019401C5
:103AC000C7010E94D60C09C0AC014C5F5F4F950145
:103AD0008401B601C7010E94C90AF82E882341F06B
:103AE000A501940161E070E0CE0192DF8F2D12C03C
:103AF000A501940160E070E0CE01DF91CF911F91AC
:103B00000F91FF90EF90DF90CF90BF90AF909F907C
:103B10008F907ECFDF91CF911F910F91FF90EF900B
:103B2000DF90CF90BF90AF909F908F9008950F93AC
:103B30001F93CF93DF93EC018B0146DC90936604D7
:103B400080936504009739F0A801BE01E0DBEC0129
:103B5000892B19F40BC0C8E9D2E0809165049091DB
:103B600066047CDC1092660410926504CE01DF913D
:103B7000CF911F910F9108958091650490916604F3
:103B80006ACC2F923F924F925F926F927F928F9268
:103B90009F92AF92BF92CF92DF92EF92FF920F93DC
:103BA0001F93CF93DF93CDB7DEB76B970FB6F89423
:103BB000DEBF0FBECDBF20916904222309F425C2C8
:103BC0005D8B4C8B688B798B8A8B9B8B9A01AB01BD
:103BD000BC01CE0101967C010E94611310E038E027
:103BE000232E312CEA8EFB8E89819A8118161906B4
:103BF0000CF006C21F861E861D861C8689819A814E
:103C0000AC85BD85A817B9070CF0EFC1EB81FC812D
:103C1000AE85BF85EA0FFB1F2081318130936004A0
:103C200020935F04848195814281538150935E0487
:103C300040935D044681578150935C0440935B043C
:103C4000820F931F9C01990F440B550B2E8B3F8BBA
:103C5000488F598FC12CD12C76012E893F89488DF0
:103C6000598DC216D306E406F50608F0A2C11F82DC
:103C700060915F04709160048B01072E000C220B91
:103C8000330BD701C6010496A11DB11D8017910702
:103C9000A207B30728F4E0915D04F0915E040AC026
:103CA000E4E0F0E0E61BF70BEC0DFD1D80915B04FA
:103CB00090915C04E80FF91F4080512C612C712C0D
:103CC000D701C6010596A11DB11D80179107A20756
:103CD000B30728F4E0915D04F0915E040AC0E5E0CA
:103CE000F0E0E61BF70BEC0DFD1D80915B0490915D
:103CF0005C04E80FF91F8081582AD701C601069697
:103D0000A11DB11D80179107A207B30728F4E09108
:103D10005D04F0915E040AC0E6E0F0E0E61BF70BFC
:103D2000EC0DFD1D80915B0490915C04E80FF91F80
:103D30008081682AD701C6010796A11DB11D801791
:103D40009107A207B30728F4E0915D04F0915E04A7
:103D50000AC0E7E0F0E0E61BF70BEC0DFD1D8091DB
:103D60005B0490915C04E80FF91F8081782A46017A
:103D7000570148E0840E911CA11CB11C08151905BF
:103D80002A053B0508F4B4C0C016D106E206F306C6
:103D900038F480915D0490915E048C0D9D1D09C0E6
:103DA000C601861B970B20915B0430915C04820F47
:103DB000931F68E070E09DDBE0915F04F091600488
:103DC0009F010F2E000C440B550BD301C201880D2F
:103DD000991DAA1DBB1D281739074A075B07C8F0A4
:103DE00082169306A406B50638F420915D0430913E
:103DF0005E04C601089609C0C1018E1B9F0B8C0D85
:103E00009D1D20915B0430915C04820F931FB201D1
:103E100099C08601BF01685071096C197D0982162D
:103E20009306A406B50638F420915D0430915E0433
:103E3000C601089609C0C1018E1B9F0B8C0D9D1DEC
:103E400020915B0430915C04820F931F52DB8091C0
:103E50005F0490916004B101681B790B600F711FC2
:103E6000640D751D80915B0490915C0442DB809130
:103E70005F0490916004AC0148505109FA01E01BC5
:103E8000F10BAC01092E000C660B770B841695061E
:103E9000A606B70638F420915D0430915E04C8018F
:103EA00008960AC09101281B390BC901800F911F88
:103EB00020915B0430915C04820F931FAF0160E09E
:103EC00070E091D58F8320915F0430916004A1014F
:103ED000421B530B9A01200F311F240D351D40E06A
:103EE00050E0682F80915B0490915C0462D550C0D3
:103EF000C016D106E206F306C8F46C197D0980915C
:103F00005D0490915E048C0D9D1DF3DA80915F0439
:103F100090916004B101681B790B6C0D7D1D640DDF
:103F2000751D80915B0490915C040CC0C601861BDA
:103F3000970B20915B0430915C04B201685F7F4F66
:103F4000820F931FD6DA80915F0490916004AC01D8
:103F5000092E000C660B770B84169506A606B7068D
:103F600038F420915D0430915E04C60108960AC0C1
:103F7000D101A81BB90BCD018C0D9D1D20915B04B7
:103F800030915C04820F931FA20160E070E02BD59A
:103F90008F8361E070E0CE010796ABDA182FB8E0AE
:103FA0004B0E511C611C711CC40CD51CE61CF71C6B
:103FB00054CE8C859D85880F991FED81FE81E80F79
:103FC000F91F488959896A897B89808191810E947A
:103FD0009F0E4C855D854F5F5F4F5D874C878E855B
:103FE0009F8508969F878E8709CE2C893D894889B1
:103FF00059896A897B898A8D9B8D0E946113F4CDD2
:10400000112319F08C899D8997DA6B960FB6F89475
:10401000DEBF0FBECDBFDF91CF911F910F91FF90FB
:10402000EF90DF90CF90BF90AF909F908F907F9058
:104030006F905F904F903F902F900895CF93DF93B4
:10404000EC01AC0160E070E0CB019BDDAE0161E012
:1040500070E080E090E0DF91CF9193CDCF9380919D
:10406000650490916604B3D9C82F81110BC060E03C
:1040700070E0CB010E947B0961E070E080E090E09D
:104080000E947B098C2FCF9108950F931F93890174
:104090009A01AB01BC018091650490916604DFD95F
:1040A0001F910F9108953F924F925F926F927F926E
:1040B0008F929F92AF92BF92CF92DF92EF92FF9238
:1040C0000F931F93CF93DF93CDB7DEB763970FB6F0
:1040D000F894DEBF0FBECDBF6C018B015A018091F9
:1040E0006904882331F080916904882309F42AC384
:1040F0000AC069E674E08091650490916604B0D9C5
:10410000811120C3F0CF809168041A82198288231C
:1041100009F46CC0E0E94E2EEFE55E2E6624639450
:10412000712CE12CF12C97012F5A3B4FAE014F5FC0
:104130005F4F61E070E0809165049091660467D9FB
:10414000982E81114FC089819A81E80EF91EE114E1
:10415000F10409F447C081E0481A51086108710868
:1041600039F460917404709175048DEE90E031C063
:10417000AAE0EA16F10489F549E050E060E070E059
:1041800081E594E034D460917404709175048823BF
:10419000F1F08091590490E086179707D9F4BC019B
:1041A0008EEE90E06BD988E0E1E5F4E0DE0119964F
:1041B00001900D928A95E1F78091740490917504B5
:1041C0000196992790937504809374040BC08FEE29
:1041D00090E054D91A82198205C0BAE0EB16F104B6
:1041E0000CF4A1CF81E029813A8125C0E12CF12C8A
:1041F00078E0672E712C29E030E02C0F3D1F2E0D4A
:104200003F1DAE014F5F5F4FB3016E197F09809173
:10421000650490916604FBD8982E29813A8181111A
:1042200009C0E20EF31EE114F10421F0E8E0EE16FD
:10423000F1040CF381E0121613060CF080E09110EB
:104240007EC2882309F47EC280916804811104C073
:1042500019861A861B861C8689859A85AB85BC853E
:104260008031910508F06EC2FC01EC5CFF4F0C94AC
:10427000092BD6011696ED91FC91179780819181BB
:10428000A281B38189839A83AB83BC83AE014F5FE4
:104290005F4F64E070E085E190E04EC18D859E85C2
:1042A0006AD9009731F42FEF3FEFA90161E070E088
:1042B0000EC0FC01C080D180E280F380A801C7015C
:1042C000B6010E94180EA701960160E070E08DE132
:1042D00090E033C24D855E859801B6018BE190E098
:1042E00007C04D855E852FEF3FEFB6018CE190E072
:1042F000BBDB28C2D6011496ED91FC911597008185
:104300001181F80182809380A080B18060E1462E07
:10431000512C612C712C49825A826B827C8288E0FC
:1043200090E0A0E0B0E08D839E83AF83B8879E01CC
:104330002F5E3F4FAE014F5F5F4F68E070E08091AE
:1043400065049091660445D8882319F000E010E0D8
:10435000BBC089899A890897C9F7D801ED90FC906C
:10436000B8E0EB0EF11CEE0CFF1CEE0CFF1CC701BD
:104370000E943D2B8C01892B49F349825A826B8222
:104380007C82C7010F2C000CAA0BBB0B8D839E8374
:10439000AF83B8879E012F5E3F4FAE014F5F5F4FE7
:1043A00068E070E0809165049091660412D88111F4
:1043B0008BC089899A89089709F086C0D601129620
:1043C000ED91FC9113974081518162817381D801F5
:1043D0004D935D936D937C931397448155816681D2
:1043E000778114964D935D936D937C9317974085D9
:1043F00051856285738518964D935D936D937C937B
:104400001B9784859585A685B785F8018487958750
:10441000A687B787108A118A128A138A84E090E0EF
:10442000A0E0B0E0848B958BA68BB78B8091C00108
:104430009091C101A0E0B0E0808F918FA28FB38FE7
:10444000C5010B2C000CAA0BBB0B848F958FA68F7C
:10445000B78FF401D801909680E090E08A159B0513
:1044600054F44191519160E070E04D935D936D93F0
:104470007D930196F3CF9E012F5E3F4FA801B701B8
:1044800080916504909166040E94E91981111CC015
:1044900089899A89E816F906B9F4A70160E070E005
:1044A000C801A1D28B8B9E012F5E3F4FAE014D5EA6
:1044B0005F4F61E070E080916504909166040E9416
:1044C000E91981E080936804C80163960FB6F894F7
:1044D000DEBF0FBECDBFDF91CF911F910F91FF9037
:1044E000EF90DF90CF90BF90AF909F908F907F9094
:1044F0006F905F904F903F900C94D52B8D859E854B
:10450000AF85B8890097A105B10521F481E08093BA
:10451000670418C130D8009789F481E090E0A0E0EA
:10452000B0E089839A83AB83BC83AE014F5F5F4F5A
:1045300064E070E082E190E038DA04C1BC01C601B9
:104540000E94D00819821A821B821C82AE014F5F22
:104550005F4F64E070E082E190E027DA8111F2C001
:10456000D5CFD6011496ED91FC9115970190F0816D
:10457000E02D008511858FEF89830115110509F460
:1045800072C0D8014D905C906280738020E030E072
:1045900060E070E080E090E0841595050CF5F8018E
:1045A000A281B381A20FB31F1296ED91FC911397D4
:1045B000EE0FFF1FE60DF71D0190F081E02D16961E
:1045C0000D90BC91A02DEA9FA001EB9F500DFA9F8A
:1045D000500D1124640F751F0196285F3F4FDCCFEB
:1045E00083E190E00E943E1A8111ACC0C12CD12C15
:1045F000E12CF12CE414F5047CF5D8011296ED9130
:10460000FC911397EC0DFD1DA080B180A281B381B8
:10461000AA0FBB1FA60DB71D2D913C9186819781D6
:10462000289F4001299F900C389F900C1124B401C1
:10463000C5010E94791A382E940140E050E069814A
:10464000C501B7D18983B8E0CB0ED11C31107AC037
:10465000EFEFEE1AFE0ACECF61E070E0CE010196D8
:104660000E94791A6FC060E070E083E190E00E94E0
:104670003E1A68C040E050E060E070E081E190E008
:1046800094D981115FC0C12CD12C7601C701B6012C
:104690000E94B00A80919E03882321F0A801C701DF
:1046A000B6016FDAA801C701B6010E94A709FFEFA2
:1046B000CF1ADF0AEF0AFF0A82E0C816D104E1042C
:1046C000F10421F7109269041092680410927504A5
:1046D0001092740480916504909166040E94361AC9
:1046E00031C081E090E09093A00380939F0340E06D
:1046F00050E060E070E086E190E01ECF81E0D501FF
:104700008C9320C08D859E850E94BB1A009731F442
:104710002FEF3FEFA90161E070E00DC0FC01C08008
:10472000D180E280F380C701B6010E94780EA70114
:10473000960160E070E08EE190E06AD903C0C801A4
:104740000E949C1A63960FB6F894DEBF0FBECDBFD1
:10475000DF91CF911F910F91FF90EF90DF90CF905D
:10476000BF90AF909F908F907F906F905F904F9091
:104770003F900895CF92DF92EF92FF92CF93DF9315
:10478000EC01C12CD12C7601C701B6010E94B00A00
:10479000AE01C701B601F5D9AE01C701B6010E944D
:1047A000A7098091610490916204009729F0FDD7D8
:1047B00010926204109261048FEFC81AD80AE80AB6
:1047C000F80A82E0C816D104E104F104E9F6809108
:1047D0006804882359F040E050E060E070E084E134
:1047E00090E0E3D8F82E1092680401C0F12C80917B
:1047F0006904882341F01092690481E090E090936D
:10480000C1018093C00180916504909166040E946B
:10481000391A80916504909166040E942E1A8F2D9A
:10482000DF91CF91FF90EF90DF90CF900895CF93DD
:10483000DF93EC01AC0160E070E0CB010E94D0128C
:10484000AE0161E070E080E090E0DF91CF910C94E8
:10485000D01260E070E0CB010E943E1361E070E096
:1048600080E090E00C943E13CF92DF92EF92FF92A3
:104870000F931F93CF93DF93EC016A017B0100E05C
:1048800010E098010E94C80E01E010E020E030E046
:10489000B701A601CE010E94C80EDF91CF911F91F2
:1048A0000F91FF90EF90DF90CF90089568EE73E046
:1048B00080E090E00E94F61580E090E0089526E008
:1048C00040E050E16EE070E08AEA93E00E948D17CC
:1048D0008AEA93E00E94C116892B29F08AEA93E0C4
:1048E0000E94DB16F5CF80E090E00895CF92DF9232
:1048F000EF92FF920F931F93CF93DF936B017A0197
:10490000E901198218828AEA93E00E94C1168E1585
:104910009F0580F18601CC24C39485E6D82E809132
:104920007604811122C08AEA93E00E94DB16853664
:104930009105A9F7C0927604F801D1928F01888180
:104940009981019699838883EACF8AEA93E00E944D
:10495000DB168F3FFFEF9F0741F0F80181938F0136
:1049600088819981019699838883888199818E15A0
:104970009F0558F380E090E0DF91CF911F910F9158
:10498000FF90EF90DF90CF9008950F931F93CF93F8
:10499000DF93EA0189018AEA93E00E947918F8011D
:1049A000D183C08380E090E0DF91CF911F910F9180
:1049B0000895CF93DF93EC01DC01A40FB51F240F02
:1049C000351FCD018C1B9D0B8217930740F49D91E1
:1049D000E62FE927F0E0E153FF4F6491F2CF862FF5
:1049E000DF91CF9108959A01AB016FEFE2CFCF93A2
:1049F000FC01E60FF71FE40FF51FC081F4DF91E023
:104A0000C81390E0892FCF9108958091AB0490E076
:104A10002091AC04821B910908959091AC0480917F
:104A2000AB04981750F4E92FF0E0E355FB4F2081D9
:104A300030E09F5F9093AC0402C02FEF3FEFC901BD
:104A40000895E091AC048091AB04E81730F4F0E0F5
:104A5000E355FB4F808190E008958FEF9FEF08951D
:104A60000895CF93DF93EC01E0918304F0918404E7
:104A70003097F1F09091AC048091AB049817C0F09E
:104A800090E0292F30E02617370754F4DE01A20FFB
:104A9000B31F4C91D901A355BB4F4C939F5FF1CFEE
:104AA0001092AC046093AB04CB01DF91CF910994D9
:104AB000DF91CF910895E0918504F09186043097BD
:104AC00029F0109289041092880409940895CF92D5
:104AD000DF92EF92FF920F931F93CF93DF937C01AE
:104AE000CB018A0120918704222389F0EB016B011D
:104AF000C40ED51ECC15DD0561F06991D701ED918D
:104B0000FC910190F081E02DC7010995F3CF642F4E
:104B1000B8D1C801DF91CF911F910F91FF90EF9015
:104B2000DF90CF900895CF93DF931F92CDB7DEB77C
:104B30006983209187042223D1F0209188042032B8
:104B400040F021E030E0FC013383228380E090E0FC
:104B500014C080918904E82FF0E0E657FB4F99815B
:104B600090838F5F809389048093880404C061E000
:104B7000CE01019686D181E090E00F90DF91CF9138
:104B80000895FC011382128288EE93E0A0E0B0E069
:104B900084839583A683B78387ED92E09183808396
:104BA00008951092AC041092AB04109289041092F4
:104BB00088048BD08BE595E291D181E395E289C1A0
:104BC000A2C0CB01BA01ACC081E08093870460939E
:104BD000AA04109289041092880408950F93062F56
:104BE00021E0409188046AE874E08091AA04F3D03F
:104BF0001092890410928804109287040F910895EE
:104C00004F925F926F927F92AF92BF92CF92EF924C
:104C1000FF920F931F93CF93DF935C01F62ED42F57
:104C200028013901EE2011F1CFDFCE2DC43008F07C
:104C3000C3E0C150C0F028E0C29FC0011124A3010D
:104C4000920104C056954795379527958A95D2F7D6
:104C5000CA01B901D501ED91FC910190F081E02DDF
:104C6000C5010995E6CF60E0C501B8DF4D2FD1320F
:104C700008F040E22C2D6DEA74E08F2D64D0109284
:104C8000AC048093AB04DF91CF911F910F91FF9003
:104C9000EF90CF90BF90AF907F906F905F904F90CC
:104CA0000895CF92EF920F931F93C22EE12C00E054
:104CB00010E09801A5DF1F910F91EF90CF9008951C
:104CC00021E0EFCF87E794E05CCF10923A0581E0D6
:104CD000809338051092370561E082E10E949316B7
:104CE00061E083E10E949316E9EBF0E080818E7F22
:104CF000808380818D7F808388E48093B80085E401
:104D00008093BC000895ECEBF0E080818A7B808387
:104D100060E082E10E94931660E083E10C949316B8
:104D20009B01AC0160E074E284EF90E050D4DA01C2
:104D3000C9014097A109B109B695A795979587959F
:104D40008093B8000895413208F043C090913A052D
:104D50009111FCCF91E090933A05209338052FEF05
:104D60002093CD0410921205240F209311059093E7
:104D7000390590913905880F892B809339058091E9
:104D80003705813061F410923705809139058093A1
:104D9000BB008091BC0083FDF8CF85EC01C085EE9F
:104DA0008093BC0080913A058130E1F38091120537
:104DB000841710F440911205A3E1B5E0962FFB0192
:104DC0008E2F891B841718F48D918193F9CF842F2E
:104DD000089580E008950F93413208F04AC0909101
:104DE0003A059111FCCF32E030933A050093380533
:104DF0003FEF3093CD041092120540931105562FCA
:104E0000A3E1B5E0FB013E2F351B341718F43191B7
:104E10003D93F9CF1092390530913905880F832BD6
:104E20008093390580913705813061F41092370500
:104E3000809139058093BB008091BC0083FDF8CF41
:104E400085EC01C085EE8093BC00222321F0809187
:104E50003A058230D1F38091CD048F3F79F0809173
:104E6000CD04803241F08091CD04803331F094E064
:104E700005C091E003C092E001C093E0892F0F913B
:104E800008954091EF04262F30E0240F311D213288
:104E90003105DCF420913A052430C9F4FC0180E0AE
:104EA00090E0861758F43091EF042191DC01AF5067
:104EB000BB4FA30FB11D2C930196F3CF8091EF044C
:104EC000680F6093EF0480E0089581E0089582E028
:104ED0000895909334058093330508959093360593
:104EE00080933505089585ED8093BC008091BC00CA
:104EF00084FDFCCF10923A05089585EC8093BC00A8
:104F000010923A0508951F920F920FB60F92112436
:104F10002F933F934F935F936F937F938F939F93C1
:104F2000AF93BF93EF93FF938091B900887F803652
:104F300009F49DC070F5883209F45CC090F48031AA
:104F400009F455C038F4882309F4F3C0883009F413
:104F50004EC0F2C0883109F44DC0803209F45EC001
:104F6000EBC0803409F469C050F4803309F456C0B2
:104F7000883309F0E1C08093CD04BFDFDDC0803508
:104F800009F44FC0883509F45DC0883409F0D4C0F5
:104F9000D2C0883909F4C3C0A8F4883709F467C0BF
:104FA00038F4883609F463C0803709F460C0C4C09F
:104FB000883809F4B4C0803909F45FC0803809F03A
:104FC000BBC05BC0803B09F482C038F4803A09F46E
:104FD00066C0883A09F47BC0AFC0803C09F4A3C026
:104FE000883C09F4A0C0883B09F486C0A5C0809124
:104FF000390510C09091120580911105981770F530
:10500000E091120581E08E0F80931205F0E0ED5ED5
:10501000FA4F80818093BB0085EC82C08093CD04E1
:105020008AC0E091120581E08E0F80931205809175
:10503000BB00F0E0ED5EFA4F808390911205809105
:1050400011056AC0E091120581E08E0F8093120570
:105050008091BB00F0E0ED5EFA4F808380913805CF
:10506000811169C081E08093370584EA5DC083E0E7
:1050700080933A051092CE04CFCF8091CE04803237
:1050800008F04DC0E091CE0481E08E0F8093CE04F5
:105090008091BB00F0E0E153FB4F8083BDCF2DDF5B
:1050A0008091CE04803230F4E091CE04F0E0E15300
:1050B000FB4F10826091CE0470E0E0913305F091D7
:1050C00034058FEC94E009951092CE0435C084E04D
:1050D00080933A051092F0041092EF04E0913505A8
:1050E000F091360509958091EF04811105C081E0AA
:1050F0008093EF041092F104E091F00481E08E0FB0
:105100008093F004F0E0EF50FB4F80818093BB0070
:105110009091F0048091EF04981708F47DCF85E812
:105120008093BC0009C085EC8093BC0010923A05C6
:1051300003C01092CD04D7DEFF91EF91BF91AF91E4
:105140009F918F917F916F915F914F913F912F919F
:105150000F900FBE0F901F90189580913D0591E024
:10516000980F90933D05882349F021E030E030937B
:105170003F0520933E0580933D05089578940E9455
:105180002202F89480913D05815080933D050C9456
:10519000E414FF920F931F93CF93DF931F92CDB729
:1051A000DEB710923C0510923B050E942F160E941C
:1051B00031190091750210917602F8011182108266
:1051C00060E070E080E090E00E94ED140E94100426
:1051D0007894C801C1960E94EC1481E090E00E948E
:1051E000E8141982AE014F5F5F4F61E070E0F80193
:1051F000828193810E9492148981882319F081E031
:10520000F80185AB0E94F314F8940E946619F80126
:1052100080819181892B19F481E095A9911180E019
:1052200080933B0578947894FF24F39480913B0518
:10523000882341F11982AE014F5F5F4F61E070E05A
:10524000F801828193810E94CE148981882311F014
:10525000F801F5AAF80180819181892B31F481E070
:1052600095A9911103C080E001C081E080933C05C5
:1052700090913C0581E0911180E080933B050E9474
:105280008519D4CF0E94670781E090E00E94EA145C
:10529000F89480E090E00F90DF91CF911F910F91F3
:1052A000FF9008955058BB27AA270ED0DCC0CDD060
:1052B00030F0D2D020F031F49F3F11F41EF4C2C080
:1052C0000EF4E095E7FBB8C0E92FDED080F3BA1703
:1052D000620773078407950718F071F49EF5F6C00E
:1052E0000EF4E0950B2EBA2FA02D0B01B901900101
:1052F0000C01CA01A0011124FF27591B99F0593F45
:1053000050F4503E68F11A16F040A22F232F342F8C
:105310004427585FF3CF469537952795A795F040DA
:105320005395C9F77EF41F16BA0B620B730B840BEF
:10533000BAF09150A1F0FF0FBB1F661F771F881FA7
:10534000C2F70EC0BA0F621F731F841F48F48795FF
:1053500077956795B795F7959E3F08F0B3CF9395EE
:10536000880F08F09927EE0F97958795089540D0FC
:1053700008F481E00895E89409C097FB3EF4909505
:105380008095709561957F4F8F4F9F4F9923A9F01E
:10539000F92F96E9BB279395F695879577956795AD
:1053A000B795F111F8CFFAF4BB0F11F460FF1BC0F1
:1053B0006F5F7F4F8F4F9F4F16C0882311F096E984
:1053C00011C0772321F09EE8872F762F05C0662332
:1053D00071F096E8862F70E060E02AF09A95660FEB
:1053E000771F881FDAF7880F9695879597F90895A4
:1053F000990F0008550FAA0BE0E8FEEF16161706E6
:10540000E807F907C0F012161306E407F50798F04D
:10541000621B730B840B950B39F40A2661F0232B66
:10542000242B252B21F408950A2609F4A140A695E2
:105430008FEF811D811D089597F99F6780E870E0C7
:1054400060E008959FEF80EC089500240A941616FA
:10545000170618060906089500240A941216130662
:10546000140605060895092E0394000C11F48823F0
:1054700052F0BB0F40F4BF2B11F460FF04C06F5F0C
:105480007F4F8F4F9F4F089557FD9058440F551FE2
:1054900059F05F3F71F04795880F97FB991F61F0B6
:1054A0009F3F79F087950895121613061406551F2D
:1054B000F2CF4695F1DF08C0161617061806991F99
:1054C000F1CF86957105610508940895E894BB278E
:1054D00066277727CB0197F908958ADF08F48FEFC5
:1054E00008950BD0C0CFB1DF28F0B6DF18F09523B8
:1054F00009F0A2CFA7CF1124EACFC6DFA0F3959F72
:10550000D1F3950F50E0551F629FF001729FBB27AA
:10551000F00DB11D639FAA27F00DB11DAA1F649F56
:105520006627B00DA11D661F829F2227B00DA11D09
:10553000621F739FB00DA11D621F839FA00D611D8F
:10554000221F749F3327A00D611D231F849F600DB0
:10555000211D822F762F6A2F11249F5750408AF0E9
:10556000E1F088234AF0EE0FFF1FBB1F661F771F75
:10557000881F91505040A9F79E3F510570F05CCFB5
:10558000A6CF5F3FECF3983EDCF386957795679561
:10559000B795F795E7959F5FC1F7FE2B880F911D93
:1055A0009695879597F9089597FB072E16F4009422
:1055B00006D077FD08D033D007FC05D03EF4909597
:1055C00081959F4F0895709561957F4F0895A1E251
:1055D0001A2EAA1BBB1BFD010DC0AA1FBB1FEE1F6D
:1055E000FF1FA217B307E407F50720F0A21BB30BB8
:1055F000E40BF50B661F771F881F991F1A9469F734
:1056000060957095809590959B01AC01BD01CF018F
:105610000895EE0FFF1F0590F491E02D0994AA1B49
:10562000BB1B51E107C0AA1FBB1FA617B70710F08D
:10563000A61BB70B881F991F5A95A9F780959095BF
:10564000BC01CD0108950F931F93CF93DF93869FE5
:105650008001879F100D969F100D1124C8010DD059
:10566000EC01009721F0A80160E070E030D1CE019C
:10567000DF91CF911F910F9108950F931F93CF93B7
:10568000DF938230910510F482E090E0E0915507BD
:10569000F091560720E030E0A0E0B0E0309719F13B
:1056A000408151810281138148175907C8F084173E
:1056B000950769F4109731F012960C931297139690
:1056C0001C9327C0009355071093560722C021153D
:1056D000310519F04217530718F49A01BD01EF0183
:1056E000DF01F801DBCF21153105F9F0281B390B5B
:1056F0002430310580F48A819B816115710521F088
:10570000FB019383828304C09093560780935507CF
:10571000FE01329644C0FE01E20FF31F8193919384
:1057200022503109398328833AC0209153073091A0
:105730005407232B41F4209102013091030130934F
:105740005407209353072091000130910101211546
:10575000310541F42DB73EB7409104015091050148
:10576000241B350BE0915307F0915407E217F30720
:10577000A0F42E1B3F0B2817390778F0AC014E5FC1
:105780005F4F2417350748F04E0F5F1F50935407A3
:10579000409353078193919302C0E0E0F0E0CF0182
:1057A000DF91CF911F910F910895CF93DF930097D1
:1057B00009F481C0FC01329713821282A09155072F
:1057C000B0915607109781F420813181820F931F89
:1057D00020915307309154072817390751F5F0935A
:1057E0005407E093530767C0ED0120E030E0CE1787
:1057F000DF0740F44A815B819E0141155105F1F0BC
:10580000EA01F5CFD383C28340815181840F951F74
:10581000C817D90759F488819981840F951F02967A
:10582000918380838A819B819383828321153105B3
:1058300029F4F0935607E09355073DC0E901FB8337
:10584000EA8349915991C40FD51FEC17FD0761F404
:1058500080819181840F951F0296E9019983888345
:10586000828193819B838A83E0E0F0E012968D91A0
:105870009C911397009719F0FD01DC01F7CF8D91F2
:105880009C9111979D012E5F3F4F820F931F209196
:105890005307309154072817390769F4309729F4D2
:1058A000109256071092550702C013821282B093CD
:1058B0005407A0935307DF91CF910895FB01DC01BA
:1058C00002C001900D9241505040D8F70895DC017C
:1058D00001C06D9341505040E0F70895FB01DC0199
:1058E0008D91019080190110D9F3990B0895F894C6
:0258F000FFCFE8
:1058F2000000570780000000770401000E019A01A2
:1059020000000000090007001A014407000000001F
:105912000300500703000000030040050E000000D2
:1059220003006A0510000000030088050F00000054
:105932000C004806110000000C0008070B000000D4
:105942000300DB01E201EC01EB01F401F301FD01D3
:10595200FC0105020F021A0220022A023302470248
:1059620052025D026802040004000100010002000C
:10597200020004000400010004000200020004000E
:1059820008000E0010000A001000CDCCCC3DCDCC9A
:10599200CC3DCDCCCC3D0000104300008042000045
:1059A20000000AD89F3A0AD89F3A0AD89F3A0101C2
:1059B200010038153815FF53696D756C6174696F94
:1059C2006E2066696E6973686564007265616C5FFA
:1059D20054007265616C33325F540075696E7438BD
:1059E2005F540075696E7431365F540075696E7468
:1059F20033325F5400626F6F6C65616E5F54006694
:105A0200636E5F63616C6C5F5400696E745F540017
:105A1200706F696E7465725F5400616374696F6E52
:105A22005F540074696D65725F75696E7433325FBD
:105A3200706169725F54006E6E72736B34343572CA
:105A42007A006F6D7468776D646A6861006B687262
:105A520032637872726176006F6D7468776D646A12
:105A620068617700010E070000000020177918EF27
:105A7200166C17C116DB16CD162D77002D69676ED1
:105A82006F72652D61726700436F756C64206E6F73
:105A920074206372656174652065787465726E61E5
:105AA2006C206D6F6465207573657220646174612A
:105AB2002E20204F7574206F66206D656D6F727990
:105AC2002E0A000000000093256725F217302505F5
:065AD200250D2521250031
:00000001FF
